{
  "contractName": "Caller",
  "abi": [
    {
      "constant": false,
      "inputs": [
        {
          "name": "_to",
          "type": "address"
        },
        {
          "name": "_data",
          "type": "bytes"
        }
      ],
      "name": "hyperCall",
      "outputs": [
        {
          "name": "",
          "type": "bool"
        },
        {
          "name": "",
          "type": "bytes"
        }
      ],
      "payable": false,
      "stateMutability": "nonpayable",
      "type": "function"
    }
  ],
  "bytecode": "0x608060405234801561001057600080fd5b5061027d806100206000396000f3fe608060405234801561001057600080fd5b506004361061002b5760003560e01c80631c40b83214610030575b600080fd5b6101096004803603604081101561004657600080fd5b81019080803573ffffffffffffffffffffffffffffffffffffffff1690602001909291908035906020019064010000000081111561008357600080fd5b82018360208201111561009557600080fd5b803590602001918460018302840111640100000000831117156100b757600080fd5b91908080601f016020809104026020016040519081016040528093929190818152602001838380828437600081840152601f19601f82011690508083019250505050505050919291929050505061018f565b604051808315151515815260200180602001828103825283818151815260200191508051906020019080838360005b83811015610153578082015181840152602081019050610138565b50505050905090810190601f1680156101805780820380516001836020036101000a031916815260200191505b50935050505060405180910390f35b600060608373ffffffffffffffffffffffffffffffffffffffff16836040518082805190602001908083835b602083106101de57805182526020820191506020810190506020830392506101bb565b6001836020036101000a0380198251168184511680821785525050505050509050019150506000604051808303816000865af19150503d8060008114610240576040519150601f19603f3d011682016040523d82523d6000602084013e610245565b606091505b5091509150925092905056fea165627a7a72305820997564344498421c0f864ed674b2b44ffbead843b62a1a3beb7a6c6ab1771a970029",
  "source": "pragma solidity ^0.5;\n\n\ncontract Caller {\n    function hyperCall(address _to, bytes memory _data) public returns (bool, bytes memory){\n        return _to.call(_data);\n    }\n}",
  "sourcePath": "/Users/hirokimoriguchi/Documents/dappsTraining/3/contracts/Caller.sol",
  "compiler": {
    "name": "solc",
    "version": "0.5.8+commit.23d335f2.Emscripten.clang"
  },
  "schemaVersion": "3.0.11",
  "updatedAt": "2019-08-28T08:09:05.589Z",
  "devdoc": {
    "methods": {}
  },
  "userdoc": {
    "methods": {}
  }
}